{
  "_format": "hh-sol-artifact-1",
  "contractName": "DeFiLending",
  "sourceName": "contracts/DeFiLending.sol",
  "abi": [
    {
      "inputs": [
        {
          "internalType": "address",
          "name": "_tokenAddress",
          "type": "address"
        }
      ],
      "stateMutability": "nonpayable",
      "type": "constructor"
    },
    {
      "inputs": [
        {
          "internalType": "uint256",
          "name": "_amount",
          "type": "uint256"
        }
      ],
      "name": "borrow",
      "outputs": [],
      "stateMutability": "nonpayable",
      "type": "function"
    },
    {
      "inputs": [
        {
          "internalType": "address",
          "name": "",
          "type": "address"
        }
      ],
      "name": "borrowBalances",
      "outputs": [
        {
          "internalType": "uint256",
          "name": "",
          "type": "uint256"
        }
      ],
      "stateMutability": "view",
      "type": "function"
    },
    {
      "inputs": [],
      "name": "depositETH",
      "outputs": [],
      "stateMutability": "payable",
      "type": "function"
    },
    {
      "inputs": [
        {
          "internalType": "address",
          "name": "",
          "type": "address"
        }
      ],
      "name": "deposits",
      "outputs": [
        {
          "internalType": "uint256",
          "name": "",
          "type": "uint256"
        }
      ],
      "stateMutability": "view",
      "type": "function"
    },
    {
      "inputs": [
        {
          "internalType": "uint256",
          "name": "_amount",
          "type": "uint256"
        }
      ],
      "name": "repay",
      "outputs": [],
      "stateMutability": "nonpayable",
      "type": "function"
    },
    {
      "inputs": [],
      "name": "token",
      "outputs": [
        {
          "internalType": "contract IERC20",
          "name": "",
          "type": "address"
        }
      ],
      "stateMutability": "view",
      "type": "function"
    },
    {
      "inputs": [],
      "name": "withdrawETH",
      "outputs": [],
      "stateMutability": "nonpayable",
      "type": "function"
    }
  ],
  "bytecode": "0x608060405234801561001057600080fd5b50604051610e3d380380610e3d833981810160405281019061003291906100db565b806000806101000a81548173ffffffffffffffffffffffffffffffffffffffff021916908373ffffffffffffffffffffffffffffffffffffffff16021790555050610108565b600080fd5b600073ffffffffffffffffffffffffffffffffffffffff82169050919050565b60006100a88261007d565b9050919050565b6100b88161009d565b81146100c357600080fd5b50565b6000815190506100d5816100af565b92915050565b6000602082840312156100f1576100f0610078565b5b60006100ff848285016100c6565b91505092915050565b610d26806101176000396000f3fe6080604052600436106100705760003560e01c8063e086e5ec1161004e578063e086e5ec14610104578063f6326fb31461011b578063fc0c546a14610125578063fc7e286d1461015057610070565b8063371fd8e61461007557806394e1373c1461009e578063c5ebeaec146100db575b600080fd5b34801561008157600080fd5b5061009c6004803603810190610097919061079f565b61018d565b005b3480156100aa57600080fd5b506100c560048036038101906100c0919061082a565b610309565b6040516100d29190610866565b60405180910390f35b3480156100e757600080fd5b5061010260048036038101906100fd919061079f565b610321565b005b34801561011057600080fd5b50610119610577565b005b61012361068d565b005b34801561013157600080fd5b5061013a610728565b60405161014791906108e0565b60405180910390f35b34801561015c57600080fd5b506101776004803603810190610172919061082a565b61074c565b6040516101849190610866565b60405180910390f35b80600260003373ffffffffffffffffffffffffffffffffffffffff1673ffffffffffffffffffffffffffffffffffffffff16815260200190815260200160002054101561020f576040517f08c379a000000000000000000000000000000000000000000000000000000000815260040161020690610958565b60405180910390fd5b60008054906101000a900473ffffffffffffffffffffffffffffffffffffffff1673ffffffffffffffffffffffffffffffffffffffff166323b872dd3330846040518463ffffffff1660e01b815260040161026c93929190610987565b6020604051808303816000875af115801561028b573d6000803e3d6000fd5b505050506040513d601f19601f820116820180604052508101906102af91906109f6565b5080600260003373ffffffffffffffffffffffffffffffffffffffff1673ffffffffffffffffffffffffffffffffffffffff16815260200190815260200160002060008282546102ff9190610a52565b9250508190555050565b60026020528060005260406000206000915090505481565b6000600160003373ffffffffffffffffffffffffffffffffffffffff1673ffffffffffffffffffffffffffffffffffffffff16815260200190815260200160002054116103a3576040517f08c379a000000000000000000000000000000000000000000000000000000000815260040161039a90610ad2565b60405180910390fd5b8060008054906101000a900473ffffffffffffffffffffffffffffffffffffffff1673ffffffffffffffffffffffffffffffffffffffff166370a08231306040518263ffffffff1660e01b81526004016103fd9190610af2565b602060405180830381865afa15801561041a573d6000803e3d6000fd5b505050506040513d601f19601f8201168201806040525081019061043e9190610b22565b101561047f576040517f08c379a000000000000000000000000000000000000000000000000000000000815260040161047690610b9b565b60405180910390fd5b80600260003373ffffffffffffffffffffffffffffffffffffffff1673ffffffffffffffffffffffffffffffffffffffff16815260200190815260200160002060008282546104ce9190610bbb565b9250508190555060008054906101000a900473ffffffffffffffffffffffffffffffffffffffff1673ffffffffffffffffffffffffffffffffffffffff1663a9059cbb33836040518363ffffffff1660e01b8152600401610530929190610bef565b6020604051808303816000875af115801561054f573d6000803e3d6000fd5b505050506040513d601f19601f8201168201806040525081019061057391906109f6565b5050565b6000600160003373ffffffffffffffffffffffffffffffffffffffff1673ffffffffffffffffffffffffffffffffffffffff168152602001908152602001600020549050600081116105fe576040517f08c379a00000000000000000000000000000000000000000000000000000000081526004016105f590610c64565b60405180910390fd5b6000600160003373ffffffffffffffffffffffffffffffffffffffff1673ffffffffffffffffffffffffffffffffffffffff168152602001908152602001600020819055503373ffffffffffffffffffffffffffffffffffffffff166108fc829081150290604051600060405180830381858888f19350505050158015610689573d6000803e3d6000fd5b5050565b600034116106d0576040517f08c379a00000000000000000000000000000000000000000000000000000000081526004016106c790610cd0565b60405180910390fd5b34600160003373ffffffffffffffffffffffffffffffffffffffff1673ffffffffffffffffffffffffffffffffffffffff168152602001908152602001600020600082825461071f9190610bbb565b92505081905550565b60008054906101000a900473ffffffffffffffffffffffffffffffffffffffff1681565b60016020528060005260406000206000915090505481565b600080fd5b6000819050919050565b61077c81610769565b811461078757600080fd5b50565b60008135905061079981610773565b92915050565b6000602082840312156107b5576107b4610764565b5b60006107c38482850161078a565b91505092915050565b600073ffffffffffffffffffffffffffffffffffffffff82169050919050565b60006107f7826107cc565b9050919050565b610807816107ec565b811461081257600080fd5b50565b600081359050610824816107fe565b92915050565b6000602082840312156108405761083f610764565b5b600061084e84828501610815565b91505092915050565b61086081610769565b82525050565b600060208201905061087b6000830184610857565b92915050565b6000819050919050565b60006108a66108a161089c846107cc565b610881565b6107cc565b9050919050565b60006108b88261088b565b9050919050565b60006108ca826108ad565b9050919050565b6108da816108bf565b82525050565b60006020820190506108f560008301846108d1565b92915050565b600082825260208201905092915050565b7f526570617920616d6f756e742065786365656473206465627400000000000000600082015250565b60006109426019836108fb565b915061094d8261090c565b602082019050919050565b6000602082019050818103600083015261097181610935565b9050919050565b610981816107ec565b82525050565b600060608201905061099c6000830186610978565b6109a96020830185610978565b6109b66040830184610857565b949350505050565b60008115159050919050565b6109d3816109be565b81146109de57600080fd5b50565b6000815190506109f0816109ca565b92915050565b600060208284031215610a0c57610a0b610764565b5b6000610a1a848285016109e1565b91505092915050565b7f4e487b7100000000000000000000000000000000000000000000000000000000600052601160045260246000fd5b6000610a5d82610769565b9150610a6883610769565b9250828203905081811115610a8057610a7f610a23565b5b92915050565b7f596f75206d757374206465706f73697420455448206669727374000000000000600082015250565b6000610abc601a836108fb565b9150610ac782610a86565b602082019050919050565b60006020820190508181036000830152610aeb81610aaf565b9050919050565b6000602082019050610b076000830184610978565b92915050565b600081519050610b1c81610773565b92915050565b600060208284031215610b3857610b37610764565b5b6000610b4684828501610b0d565b91505092915050565b7f4e6f7420656e6f75676820746f6b656e7320696e20706f6f6c00000000000000600082015250565b6000610b856019836108fb565b9150610b9082610b4f565b602082019050919050565b60006020820190508181036000830152610bb481610b78565b9050919050565b6000610bc682610769565b9150610bd183610769565b9250828201905080821115610be957610be8610a23565b5b92915050565b6000604082019050610c046000830185610978565b610c116020830184610857565b9392505050565b7f4e6f2045544820746f2077697468647261770000000000000000000000000000600082015250565b6000610c4e6012836108fb565b9150610c5982610c18565b602082019050919050565b60006020820190508181036000830152610c7d81610c41565b9050919050565b7f4465706f736974206d7573742062652067726561746572207468616e20300000600082015250565b6000610cba601e836108fb565b9150610cc582610c84565b602082019050919050565b60006020820190508181036000830152610ce981610cad565b905091905056fea2646970667358221220d7fa4a961987be7494a2afefd06dd373ed80f187b749f4f7b5d4e295e47f4a3464736f6c634300081c0033",
  "linkReferences": {},
  "deployedLinkReferences": {}
}