{
  "_format": "hh-sol-artifact-1",
  "contractName": "TodoList",
  "sourceName": "contracts/TodoList.sol",
  "abi": [
    {
      "inputs": [
        {
          "internalType": "string",
          "name": "text",
          "type": "string"
        }
      ],
      "name": "createTodo",
      "outputs": [],
      "stateMutability": "nonpayable",
      "type": "function"
    },
    {
      "inputs": [],
      "name": "getTodos",
      "outputs": [
        {
          "components": [
            {
              "internalType": "uint256",
              "name": "id",
              "type": "uint256"
            },
            {
              "internalType": "string",
              "name": "text",
              "type": "string"
            },
            {
              "internalType": "bool",
              "name": "completed",
              "type": "bool"
            }
          ],
          "internalType": "struct TodoList.Todo[]",
          "name": "",
          "type": "tuple[]"
        }
      ],
      "stateMutability": "view",
      "type": "function"
    },
    {
      "inputs": [],
      "name": "nextId",
      "outputs": [
        {
          "internalType": "uint256",
          "name": "",
          "type": "uint256"
        }
      ],
      "stateMutability": "view",
      "type": "function"
    },
    {
      "inputs": [
        {
          "internalType": "uint256",
          "name": "",
          "type": "uint256"
        }
      ],
      "name": "todos",
      "outputs": [
        {
          "internalType": "uint256",
          "name": "id",
          "type": "uint256"
        },
        {
          "internalType": "string",
          "name": "text",
          "type": "string"
        },
        {
          "internalType": "bool",
          "name": "completed",
          "type": "bool"
        }
      ],
      "stateMutability": "view",
      "type": "function"
    },
    {
      "inputs": [
        {
          "internalType": "uint256",
          "name": "id",
          "type": "uint256"
        }
      ],
      "name": "toggleTodoCompleted",
      "outputs": [],
      "stateMutability": "nonpayable",
      "type": "function"
    }
  ],
  "bytecode": "0x6080604052348015600f57600080fd5b50610c4a8061001f6000396000f3fe608060405234801561001057600080fd5b50600436106100575760003560e01c806361b8ce8c1461005c578063a8cb57051461007a578063bc8bc2b414610096578063c33926cb146100c8578063e34f1221146100e6575b600080fd5b610064610102565b6040516100719190610405565b60405180910390f35b610094600480360381019061008f9190610460565b610108565b005b6100b060048036038101906100ab9190610460565b61015f565b6040516100bf93929190610538565b60405180910390f35b6100d061022e565b6040516100dd91906106f0565b60405180910390f35b61010060048036038101906100fb9190610847565b610344565b005b60015481565b600080828154811061011d5761011c610890565b5b906000526020600020906003020190508060020160009054906101000a900460ff16158160020160006101000a81548160ff0219169083151502179055505050565b6000818154811061016f57600080fd5b9060005260206000209060030201600091509050806000015490806001018054610198906108ee565b80601f01602080910402602001604051908101604052809291908181526020018280546101c4906108ee565b80156102115780601f106101e657610100808354040283529160200191610211565b820191906000526020600020905b8154815290600101906020018083116101f457829003601f168201915b5050505050908060020160009054906101000a900460ff16905083565b60606000805480602002602001604051908101604052809291908181526020016000905b8282101561033b57838290600052602060002090600302016040518060600160405290816000820154815260200160018201805461028f906108ee565b80601f01602080910402602001604051908101604052809291908181526020018280546102bb906108ee565b80156103085780601f106102dd57610100808354040283529160200191610308565b820191906000526020600020905b8154815290600101906020018083116102eb57829003601f168201915b505050505081526020016002820160009054906101000a900460ff16151515158152505081526020019060010190610252565b50505050905090565b6000604051806060016040528060015481526020018381526020016000151581525090806001815401808255809150506001900390600052602060002090600302016000909190919091506000820151816000015560208201518160010190816103ae9190610acb565b5060408201518160020160006101000a81548160ff0219169083151502179055505050600160008154809291906103e490610bcc565b919050555050565b6000819050919050565b6103ff816103ec565b82525050565b600060208201905061041a60008301846103f6565b92915050565b6000604051905090565b600080fd5b600080fd5b61043d816103ec565b811461044857600080fd5b50565b60008135905061045a81610434565b92915050565b6000602082840312156104765761047561042a565b5b60006104848482850161044b565b91505092915050565b600081519050919050565b600082825260208201905092915050565b60005b838110156104c75780820151818401526020810190506104ac565b60008484015250505050565b6000601f19601f8301169050919050565b60006104ef8261048d565b6104f98185610498565b93506105098185602086016104a9565b610512816104d3565b840191505092915050565b60008115159050919050565b6105328161051d565b82525050565b600060608201905061054d60008301866103f6565b818103602083015261055f81856104e4565b905061056e6040830184610529565b949350505050565b600081519050919050565b600082825260208201905092915050565b6000819050602082019050919050565b6105ab816103ec565b82525050565b600082825260208201905092915050565b60006105cd8261048d565b6105d781856105b1565b93506105e78185602086016104a9565b6105f0816104d3565b840191505092915050565b6106048161051d565b82525050565b600060608301600083015161062260008601826105a2565b506020830151848203602086015261063a82826105c2565b915050604083015161064f60408601826105fb565b508091505092915050565b6000610666838361060a565b905092915050565b6000602082019050919050565b600061068682610576565b6106908185610581565b9350836020820285016106a285610592565b8060005b858110156106de57848403895281516106bf858261065a565b94506106ca8361066e565b925060208a019950506001810190506106a6565b50829750879550505050505092915050565b6000602082019050818103600083015261070a818461067b565b905092915050565b600080fd5b600080fd5b7f4e487b7100000000000000000000000000000000000000000000000000000000600052604160045260246000fd5b610754826104d3565b810181811067ffffffffffffffff821117156107735761077261071c565b5b80604052505050565b6000610786610420565b9050610792828261074b565b919050565b600067ffffffffffffffff8211156107b2576107b161071c565b5b6107bb826104d3565b9050602081019050919050565b82818337600083830152505050565b60006107ea6107e584610797565b61077c565b90508281526020810184848401111561080657610805610717565b5b6108118482856107c8565b509392505050565b600082601f83011261082e5761082d610712565b5b813561083e8482602086016107d7565b91505092915050565b60006020828403121561085d5761085c61042a565b5b600082013567ffffffffffffffff81111561087b5761087a61042f565b5b61088784828501610819565b91505092915050565b7f4e487b7100000000000000000000000000000000000000000000000000000000600052603260045260246000fd5b7f4e487b7100000000000000000000000000000000000000000000000000000000600052602260045260246000fd5b6000600282049050600182168061090657607f821691505b602082108103610919576109186108bf565b5b50919050565b60008190508160005260206000209050919050565b60006020601f8301049050919050565b600082821b905092915050565b6000600883026109817fffffffffffffffffffffffffffffffffffffffffffffffffffffffffffffffff82610944565b61098b8683610944565b95508019841693508086168417925050509392505050565b6000819050919050565b60006109c86109c36109be846103ec565b6109a3565b6103ec565b9050919050565b6000819050919050565b6109e2836109ad565b6109f66109ee826109cf565b848454610951565b825550505050565b600090565b610a0b6109fe565b610a168184846109d9565b505050565b5b81811015610a3a57610a2f600082610a03565b600181019050610a1c565b5050565b601f821115610a7f57610a508161091f565b610a5984610934565b81016020851015610a68578190505b610a7c610a7485610934565b830182610a1b565b50505b505050565b600082821c905092915050565b6000610aa260001984600802610a84565b1980831691505092915050565b6000610abb8383610a91565b9150826002028217905092915050565b610ad48261048d565b67ffffffffffffffff811115610aed57610aec61071c565b5b610af782546108ee565b610b02828285610a3e565b600060209050601f831160018114610b355760008415610b23578287015190505b610b2d8582610aaf565b865550610b95565b601f198416610b438661091f565b60005b82811015610b6b57848901518255600182019150602085019450602081019050610b46565b86831015610b885784890151610b84601f891682610a91565b8355505b6001600288020188555050505b505050505050565b7f4e487b7100000000000000000000000000000000000000000000000000000000600052601160045260246000fd5b6000610bd7826103ec565b91507fffffffffffffffffffffffffffffffffffffffffffffffffffffffffffffffff8203610c0957610c08610b9d565b5b60018201905091905056fea26469706673582212201d261afa1730ff4d71982241cea3011686541aa0c913e6e1259a2afd1cfda59e64736f6c634300081c0033",
  "linkReferences": {},
  "deployedLinkReferences": {}
}